:100000000C946D040C9400000C9400000C940000FF
:100010000C9400000C9400000C9400000C94000060
:100020000C9400000C9400000C9400000C94000050
:100030000C9400000C9400000C9400000C94000040
:100040000C9400000C9400000C9400000C94000030
:040050000C9400000C
:1008DA00BFE5BDBFB4E0BEBF0E9406052F923F929E
:1008EA004F925F926F927F928DDFBBE72B2EB0E023
:1008FA003B2EEFDCB0E0B093C600B093C700B093D4
:10090A00C800B093C90033DD1695079520E0322F51
:10091A00BBDD0093CC001093CD002093CE00309322
:10092A00CF000091CA001091CB0020E0322FACDD3D
:10093A00A801B9010091CC001091CD002091CE0000
:10094A003091CF00BBDF4CEA5CE565E072E4B7DCCE
:10095A000093C6001093C7002093C8003093C900C3
:10096A00BBEA6B2EB0E07B2E1801290195DDBBEAAC
:10097A002B2EB0E03B2EADDCB0E22B2E8DDCB0E6A8
:10098A002B2EB0E03B2EA5DCBDE02B2E85DCBAE099
:10099A002B2E82DC29E216E900E80A95F1F71A956E
:1009AA00E1F72A95D1F7A6CF7F906F905F904F908D
:0609BA003F902F90FFCFDB
:10080E002F923F924F92BAB3B062BABBB3E3B9B96B
:10081E00B0E0B0BD73DD2DE01DE208ED0A95F1F7F5
:10082E001A95E1F72A95D1F700000000B8E92B2EB2
:10083E00B0E03B2E4CDDB0E0B093C600B093C700E5
:10084E00B093C800B093C900B0E0B093D000B0939D
:10085E00D100B0E0B093CC00B093CD00B093CE00F9
:10086E00B093CF00B0E0B093CA00B093CB00BBB34F
:10087E00B062BBBBB4E04B2EB6E03B2EB0E12B2EEC
:10088E00D4DD2DE01DE208ED0A95F1F71A95E1F79A
:10089E002A95D1F700000000B9E62B2EB0E03B2ED2
:1008AE0016DD63DD169507950093CA001093CB00F5
:0808BE004F903F902F90089528
:1002DC0010E0F1010081202F022F003079F03F92C5
:1002EC002F92202ED8DF2F903F90012F0F5F102FD1
:0E02FC00E02FF0E0E20DF31D0081EFCF08953A
:1002A200BBB1B5FD01C0FCCFBBB1B6FF03C0BBB152
:0802B200B064BBB92CB808953B
:10043800BCE0B093C000B1E0B093C100BFEFB0938F
:10044800C200BFEFB093C300B7B3B068B7BBB7B3D0
:10045800BF7BB7BBB7B3B062B7BBB7B3B061B7BB0D
:1004680032FABEB1B0F9BEB9032D037004290229CE
:0604780000640DB90895B7
:10037800CF93DF93CDB7DEB72197CDBFDEBF2196F0
:100388002F9230E040E020E02A3040F5BBB3BF7D3B
:10039800BBBB28803DDF702F80E0288039DF502FDD
:1003A80060E0BBB3B062BBBB072F182F0F71107092
:1003B800102F0027702F812F072F182F052B162B92
:1003C80016950795502F612F052F162F030F141F11
:1003D800302F412F022F0F5F202FD6CF032F142F3E
:1003E8004AE050E001DF8C01980189012F90CDBFD0
:0803F800DEBFDF91CF910895F3
:0E0218002FB8BEB1B7FD01C0FCCF0FB10895E5
:1001F000C801BA01AA1BBB1B51E107C0AA1FBB1F44
:10020000A617B70710F0A61BB70B881F991F5A95A2
:08021000A9F78095909508956F
:10030A00B1E5B093C400B1E0B093C500BFEFB093BC
:10031A00BA00BFEFB093BB00BFEFB093BC00BFEF12
:10032A00B093BD00BFEFB093BE00BFEFB093BF0064
:10033A00B1B3BE7FB1BBB1B3B260B1BB0AB10861A0
:08034A000AB9B6E8B0BD089540
:1004A200CF93DF93CDB7DEB72697CDBFDEBF2196C0
:1004B2002F923F924F925F92B0E0BC83B0E0BD8337
:1004C200288239824A825B82088119812A813B8192
:1004D2003F3F29F42F3F19F41F3F09F40F3F41F426
:1004E200B3E64B2EB0E05B2E130189DF03E084C13B
:1004F20061E08E01F8013396008107FF16C08E017C
:1005020098012D5F3F4FF9010081B0E80B27F901F7
:100512000083062F0F5F202FF301BDE2B08383011A
:100522000F5F1F4F3801422F01C0462F08811981EA
:100532002A813B81303029F4203019F4103009F43B
:10054200003041F4B7E64B2EB0E05B2E130157DFCB
:1005520000E052C1088119812A813B813F3729F489
:10056200203819F4103009F4003051F44F93B4E9F3
:100572004B2EB0E05B2E130142DF4F91042F3CC1A2
:100582005F924F923F922F9240E050E060E87FE30B
:10059200088119812A813B8147DF002800E009F0A8
:1005A20001E02F903F904F905F900023C9F05F923F
:1005B2004F923F922F92088119812A813B8140E01C
:1005C20050E060E271E47FDE2F903F904F905F90A9
:1005D200088319832A833B830D8101500D83D0CF79
:1005E2005F924F923F922F9240E050E060E271E4BE
:1005F200088119812A813B81B7DE002800E009F0D9
:1006020001E02F903F904F905F900023C9F05F92DE
:100612004F923F922F92088119812A813B814DECA2
:100622005CEC6CEC7DE34FDE2F903F904F905F903F
:10063200088319832A833B830D810F5F0D83D0CFFB
:10064200088119812A813B81000F111F221F331F4C
:10065200088319832A833B838E01F8013396008134
:100662000F57402F8E01F8013396B1E0B083088115
:1006720019812A813B81B42FBB2331F0000F111F56
:10068200221F331FBA95D1F7088319832A833B832C
:100692008E01F80133960081005DF301008383012E
:1006A2000F5F1F4F38010D8101302CF01D8106E0D4
:1006B20001170CF009C0F301BEE2B08383010F5FA2
:1006C2001F4F3801B1E0BC8386E0803009F44BC093
:1006D2008E01F8013396B0E0B083088119812A8136
:1006E2003B81A801B901440F551F661F771F440FB4
:1006F200551F661F771F088119812A813B81040FCC
:10070200151F261F371F088319832A833B830881FD
:1007120019812A813B81000F111F221F331F088379
:1007220019832A833B838E01F80133960081005D91
:10073200F301008383010F5F1F4F38010C810030EA
:1007420071F40D8101500D83003049F4F301BEE2D2
:10075200B08383010F5F1F4F3801B1E0BC83082FC4
:100762000150802FB2CFF30131970081003329F479
:100772008301015010403801F6CFF3013197008117
:100782000E3221F483010150104038010D810030F6
:1007920079F1F301B5E6B08383010F5F1F4F380192
:1007A2000D8100305CF4F301BDE2B08383010F5F81
:1007B2001F4F38010D8000E000190D832D811D812E
:1007C20009E0011750F4022F4AE0C2DD005DF30197
:1007D200008383010F5F1F4F3801022F4AE0B8DD0B
:1007E200092F005DF301008383010F5F1F4F380162
:1007F200F301B0E0B08300E05F904F903F902F9004
:0C0802002596CDBFDEBFDF91CF91089599
:10040000A1019A018A010F5F1F4FA801F201820129
:100410000F5F1F4F28010081F9010083F90100815E
:0A042000002309F0EECF81010895DA
:0E042A0047DF1CF40024039401C00024089551
:0E02BA00042E152E262E372E8BDF00230895DE
:1001DA00FCDF332332F039DF11F001E003C00027DE
:0601EA0001C00FEF0895B3
:0601D4006894A3DF08950A
:10011E00CADF09F441C0E62ED52EC42EB32EA22E70
:10012E00912E802E002D112D222D332DBCDF09F4A2
:10013E003DC0842F952F8C199D09B9F072F49095BE
:10014E00809501964C2D5D2D883180F5359527953E
:10015E00179507950197D1F708C08831E8F4B59443
:10016E00A794979487940197D1F766272EF0080DE0
:10017E00191D2A1D3B1D09C0801A910AA20AB30A35
:10018E00082D192D2A2D3B2D332312F483DF60E821
:10019E0091DF01C060DF16C0002D112D222D332DF1
:1001AE00D6F751DFC1F340E83427F5CF082D192DCE
:1001BE002A2D3B2D4C2D5D2D6E2D33235AF76ADFE4
:0601CE0060E8E8CF08958F
:0E00B400E1DF21F0662309F0F2DF9894089551
:10007800EDDF79F0632F6078220F331F432F5FE79E
:10008800451B55275040269530E8232B3327989455
:0A00980003C044275527662708958A
:10005400002329F4112319F4222309F433230895E6
:000064009C
:1000A20000951095209530950F5F1F4F2F4F3F4FB2
:0200B2000895AF
:1000C200C8DF11F19F938F938EE790E0332351F0B5
:1000D200369527951795079548175907B4F44F5F3A
:1000E2005F4FF4CF80959095019622239AF0000FEE
:1000F200111F221F481759071CF041505040F5CFDD
:10010200002711272227332708C033270FEF102F8C
:0C0112002FE7322F8F919F91A4DF0895FA
:10006400F7DF39F041585F4F342F220F369527952B
:04007400362B08958A
:1002C800042E152E262E372EAADF002E112E222EB2
:0402D800332E089524
:1002260028DF81F1E62ED52EC42EB32EA22E912ED6
:10023600802E002D112D222D332D1BDF19F16E2559
:100246004C0D5D1D40385307F4F441387FEF5707D6
:10025600FCF088279927AA27BB2770E2B695A795B1
:1002660097958795379527951795079520F4880DC7
:10027600991DAA1DBB1D7A9589F7032F3A2F292FA1
:10028600182F1CDF0AC00FEF102F2FE73FE7FACF1A
:0C0296000027102F202F302FF5CF0895E7
:0E036A00A7DF1CF00024039401C000240895B6
:10035200992779E004C0991F941708F0941B001F95
:080362007A95C9F70095089592
:0A04980005900D920197E1F7089519
:060492006894F4DF0895F8
:10047E0047E16627552726F0332312F40BDE60E89A
:04048E0019DE0895D6
:1008C600042E152E262E372E82DC002E112E222ED9
:0408D600332E089520
:100A0C00A0E6B0E0E0ECF9E08BE490E00E944C0250
:020A1C0008953B
:0309C0006D560071
:0409C3004E614E0033
:0209C7003000FE
:1009C90053504920496E697469616C697A65640D8F
:0209D9000A0012
:1009DB00456E746572696E67205768696C65204C4B
:0909EB006F6F702E2E2E0D0A0014
:0409F400494E460022
:1009F8005541525420496E697469616C697A65641D
:030A08000D0A00D4
:00000001FF
