:100000005416040000000000000000000000000082
:1000100000000000000000000000000000000000E0
:1000200000000000000000000000000000000000D0
:1000300000000000000000000000000000000000C0
:1000400000000000000000000000000000000000B0
:102CA8006F082100F0FF270020A0B70010202000A7
:102CB80032A0B700400020004420B7000400FA000A
:102CC800DC160200000000008A1F78008B1F7800C5
:102CD8008C1F780075FF07008A032100F2FD0700AA
:102CE8000020EF000220EF00108488002184880073
:102CF80005FE07004100DE008000EB009FFA070098
:102D0800E0838800F1838800D08380008000EB0096
:102D18009AFA07000007980011079800E0838000DE
:102D2800F1838000829FBE000E0190009E019000FA
:102D380042FE07004F01BE00C2CA250053202400EE
:102D4800B2FC07001084880021848800AC062100AA
:102D58000005BE003EFE0700AA062100D2FD0700BE
:102D68000A02200045FA07001A052100CEFD0700D7
:102D7800DA00200041FA0700AA0020003FFA070005
:102D8800D8002000775023000E20ED00FEFF3A0007
:102D98001020ED00FCFF3A00D1FF37004F06780005
:102DA800CF0578004F0578000080FA00FFFF370054
:002DB8001B
:102AB4008A1F78008B1F78008C1F78008D1F780088
:102AC4000A5822000B002000F7FD070048002000F0
:102AD40017982A000E20ED00FEFF3A001020ED00AA
:102AE400FCFF3A00000000000000000000000000AD
:102AF4002A0121006DFE07000020EF000220EF00F4
:102B040010848800218488000020EF00008488005D
:102B14000020EF000220EF00E0838800F1838800AA
:102B24000020EF00D08388006004200046A7B7008F
:102B34004427EF000E2EEF001E2EEF002E2EEF0086
:102B44003E2EEF004E2EEF002CC2B3001BC0B3008C
:102B54004AC6B30066FE07001CC0B3001620EF008F
:102B64005AC6B30062FE07004800200017982A00E6
:102B74000E20ED00FEFF3A001020ED00FCFF3A00AD
:102B8400000000000000000000000000204EA9002A
:102B9400224EA800FCC1B3001620EF008AC6B30081
:102BA40053FE07003CC3B3001BC0B3002AC6B300E6
:102BB4004FFE07000CC2B3001620EF00FAC4B300A6
:102BC4004BFE07004800200017982A000E20ED0055
:102BD400FEFF3A001020ED00FCFF3A000000000068
:102BE40000000000000000001D0020001820EF007D
:102BF4001620EF000A02200000102000801F780039
:102C04000020EF00801F780000202000801F780043
:102C14000020EF00801F780072FE07008F00B100D3
:102C24004800200017982A000E20ED00FEFF3A000D
:102C34001020ED00FCFF3A0000000000000000003E
:102C4400000000000A5822000B00200096FD070037
:102C54004800200017982A000E20ED00FEFF3A00DD
:102C64001020ED00FCFF3A0000000000000000000E
:102C7400000000000A0021000CFE07005A02210097
:102C84000AFE070021FE07004100DE00D083880011
:102C9400CF0678004F067800CF0578004F057800FE
:042CA4000000060026
:1022AC000800FA0020B4200020838800F0FF2F00E3
:1022BC0040838800F0FF2F0030838800F0FF2F0050
:1022CC00108388002022EF000000280022A2B70013
:1022DC002062A900F4FE07000001BE00803E200031
:1022EC0001002000DEFE07000001BE00DAFE070040
:1022FC004100DE0064004000800078006000470070
:10230C000A88BE008100E900030035001018D000D7
:10231C001090D200FBFF3700829FBE008A9FBE0048
:10232C000200BE000E0190009E0190000002EB0026
:10233C0009FF07004F05BE004F01BE0020079800A3
:10234C00310798008A9FBE000200BE000E0190006B
:10235C009E0190000002EB00D6FE07004F05BE0068
:10236C008001780001027800600047005001D10024
:10237C00C080D300640047003008E1002090E100E9
:10238C000700310061804100E0004A0080027800C3
:10239C0001037800050178008601780002003700FF
:1023AC0003017800840178000280710033003A0048
:1023BC00BDFE07000001BE00803E20000100200091
:1023CC00A7FE07000001BE00A3FE07004100DE00CF
:1023DC0000A0EC0080007800600047000A88BE0076
:1023EC008100E900030035001018D0001090D200D5
:1023FC00FBFF3700829FBE000200BE000E01900062
:10240C009E0190000002EB00D3FE07004F01BE00BE
:10241C0020079800310798000200BE000E019000C2
:10242C009E0190000002EB00A2FE070080017800E4
:10243C0001027800600047005001D100C080D30039
:10244C00640047003008E1002090E10007003100F3
:10245C0061804100E0004A008002780001037800AE
:10246C00050178008601780002003700030178002E
:10247C00840178002062A800000037006100510040
:10248C00E0805900401188002222A90021E2A80016
:10249C002342A8007BFE07007AFE07000080FA00AA
:0424AC000000060026
:0C1EB40000F421000100200000000600E6
:081E6400200020000000060030
:101E900028002000078823000E20ED00FEFF3A00F6
:101EA0001020ED00FCFF3A000000000000000000E0
:041EB0000000060028
:101E6C000000FA00020AB800500088000200B80016
:101E7C0081004200032AB800810042000080FA0071
:041E8C00000006004C
:101F64000000FA0002000700061004000000000050
:101F74000800E20002003A0010000700000006001A
:101F8400811F78000200E20002003D0060001000A2
:101F9400E08018000600E20002003D00600111002C
:101FA400E0811900050007004F00E00002003B003B
:101FB40060001000E0801800000006000200070026
:101FC4000480BE00000006006022B8000602200063
:101FD4000000D0008180D2000482D2008582D20029
:101FE4000000A8000202520083825A0003003B0052
:101FF4000202420083824A000000A1000603E900B5
:10200400F3FF3A00000006000080FA00000006001A
:00201400CC
:101EC0000000FA0002000700AE0F0400000000004E
:101ED0000800E20002003A001000070000000600BF
:101EE000839F68000200E20002003D0060001000D5
:101EF000E08018000600E20002003D0060011100D1
:101F0000E0811900050007004F00E00002003B00DF
:101F100060001000E0801800000006006022B80099
:101F2000060220000000D0008180D2000482D2008E
:101F30008582D2000000A8000202520083825A006B
:101F400003003B000202420083824A000000A1001D
:101F50000603E900F3FF3A00000006000080FA00E3
:041F60000000060077
:1024B0000000FA000220EF001A4078006004E100FA
:1024C0000A0032008A1F78000085FB006DFC0700BF
:1024D0004F05780061C04000804078000080FB001C
:1024E0000000450010407800F4FF37000080FA003B
:0424F00000000600E2
:101684000000FA002302AF0001003700FDFF37001D
:0C1694002A1188000080FA000000060007
:1024F4000000FA008D1F78001D002000D1F70700AE
:0C250400CF0678000080FA0000000600FE
:100448000200FA00F00F200000079800605CE1004D
:10045800BF003A001A00E20001003200E6FF070080
:100468005D003700006820000C487800B5003700B0
:10047800106820000C487800B2003700206820007F
:100488000C487800AF003700306820000C4878002E
:10049800AC003700406820000C487800A9003700FD
:1004A800506820000C487800A600370060682000DB
:1004B8000C487800A3003700706820000C487800CA
:1004C800A0003700806820000C4878009D003700A5
:1004D800906820000C4878009A003700A068200037
:1004E8000C48780097003700B06820000C48780066
:1004F80094003700C06820000C487800910037004D
:10050800D06820000C4878008E003700E068200092
:100518000C4878008B003700F06820000C48780001
:1005280088003700006920000C48780085003700F3
:10053800106920000C4878008200370020692000EC
:100548000C4878007F003700306920000C4878009C
:100558007C003700606920000C487800790037007B
:10056800706920000C487800760037008069200008
:100578000C48780073003700906920000C48780018
:1005880070003700A06920000C4878006D00370023
:10059800B06920000C4878006A003700C069200064
:1005A8000C48780067003700D06920000C487800B4
:1005B80064003700E06920000C48780061003700CB
:1005C800F06920000C4878005E0037000020EF003A
:1005D800000798005B00370000C4B3000054E10036
:1005E800A0FF320010C4B3000054E100A0FF3200A5
:1005F80020C4B3000054E100A0FF320030C4B300AF
:100608000054E100A0FF320040C4B3000054E100F0
:10061800A0FF320050C4B3000054E100A0FF320034
:1006280060C4B3000054E100A0FF320070C4B300FE
:100638000054E100A0FF3200F0C4B3000054E10010
:10064800A0FF320000C5B3000054E100A0FF320053
:1006580020C5B3000054E100A0FF320040C5B3003C
:100668000054E100A0FF320050C5B3000054E1007F
:10067800A0FF320070C5B3000054E100A0FF3200B3
:1006880000C6B3000054E100A0FF320010C6B3005A
:100698000054E100A0FF320020C6B3000054E1007E
:1006A800A0FF320030C6B3000054E100A0FF3200C2
:1006B80040C6B3000054E100A0FF320050C6B300AA
:1006C8000054E100A0FF320080C6B3000054E100EE
:1006D800A0FF3200C0C6B3000054E100A0FF320002
:1006E800D0C6B3000054E100A0FF320000C7B30039
:1006F8000054E100A0FF320010C7B3000054E1002D
:10070800A0FF320060C7B3000054E100A0FF320030
:1007180080C7B3000054E100A0FF3200D0C7B30087
:100728000054E100A0FF3200E0C7B3000054E1002C
:10073800A0FF3200F0C7B3000054E100A0FF320070
:10074800A2FF37001A00E2000100320033FF070061
:10075800615CE10027013A001A00E2000100320062
:1007680025FF07009C003700106A20000A4878001F
:100778001D013700206A20000A4878001A01370056
:10078800306A20000A48780017013700406A2000C4
:100798000A48780014013700606A20000A48780087
:1007A80011013700706A20000A4878000E013700EE
:1007B800806A20000A4878000B013700906A200000
:1007C8000A48780008013700A06A20000A48780023
:1007D80005013700B06A20000A4878000201370096
:1007E800C06A20000A487800FF003700D06A20005D
:1007F8000A487800FC003700E06A20000A487800C0
:10080800F9003700F06A20000A487800F60037003F
:10081800006B20000A487800F3003700106B2000B6
:100828000A487800F0003700206B20000A4878005A
:10083800ED003700306B20000A487800EA003700E6
:10084800406B20000A487800E7003700506B200012
:100858000A487800E4003700606B20000A487800F6
:10086800E1003700706B20000A487800DE0037008E
:10087800406C20000A487800DB003700506C2000EC
:100888000A487800D8003700606C20000A487800D1
:10089800D5003700706C20000A487800D200370075
:1008A800806C20000A487800CF003700906C200048
:1008B8000A487800CC003700A06C20000A4878006D
:1008C800C9003700E06C20000A487800C6003700ED
:1008D800406D20000A487800C3003700506D2000A2
:1008E8000A487800C0003700606D20000A48780088
:1008F800BD003700706D20000A487800BA00370044
:10090800806D20000A487800B7003700906D2000FD
:100918000A487800B4003700A06D20000A48780023
:10092800B1003700B06D20000A487800AE003700EB
:10093800C06D20000A487800AB003700E06D200049
:100948000A487800A8003700F06D20000A487800AF
:10095800A5003700006E20000A487800A200370082
:10096800206E20000A4878009F003700306E200073
:100978000A4878009C003700406E20000A4878003A
:1009880099003700506E20000A487800960037001A
:10099800606E20000A48780093003700706E2000CF
:1009A8000A48780090003700806E20000A487800D6
:1009B8008D003700906E20000A4878008A003700C2
:1009C800A06E20000A487800870037000020EF005A
:1009D80000079800840037006064E10062FF32007D
:1009E8006164E10063FF32006264E10064FF320089
:1009F8006364E10065FF32006464E10066FF320071
:100A08006564E10067FF32006664E10068FF320058
:100A18006764E10069FF32006864E1006AFF320040
:100A28006964E1006BFF32006A64E1006CFF320028
:100A38006B64E1006DFF32006C64E1006EFF320010
:100A48006D64E1006FFF32006E64E10070FF3200F8
:100A58006F64E10071FF32007064E10072FF3200E0
:100A68007164E10073FF32007264E10074FF3200C8
:100A78007364E10075FF32007464E10076FF3200B0
:100A88007564E10077FF320020C2B3000064E10022
:100A980077FF320030C2B3000064E10077FF320014
:100AA80040C2B3000064E10077FF320050C2B300D7
:100AB8000064E10077FF320060C2B3000064E10027
:100AC80077FF320070C2B3000064E10077FF3200A4
:100AD80080C2B3000064E10077FF320090C2B30027
:100AE8000064E10077FF3200D0C2B3000064E10087
:100AF80077FF3200E0C2B3000064E10077FF320004
:100B0800F0C2B3000064E10077FF320000C3B30015
:100B18000064E10077FF320010C3B3000064E10015
:100B280077FF320020C3B3000064E10077FF320092
:100B380030C3B3000064E10077FF320040C3B30064
:100B48000064E10077FF320050C3B3000064E100A5
:100B580077FF320060C3B3000064E10077FF320022
:100B680070C3B3000064E10077FF320080C3B300B4
:100B78000064E10077FF320090C3B3000064E10035
:100B880077FF3200A0C3B3000064E10077FF3200B2
:100B9800B0C3B3000064E10077FF3200C0C3B30004
:100BA8000064E10077FF3200D0C3B3000064E100C5
:100BB80077FF3200E0C3B3000064E10077FF320042
:100BC800F0C3B3000064E10077FF320000C4B30053
:100BD8000064E10077FF320010C4B3000064E10054
:100BE80077FF320079FF37001A00E2000100320077
:100BF8000AFE0700840137001600AE00000EA900A7
:100C08001600AF00000EA8005D0237001600AE0007
:100C1800002EA9001600AF00002EA80058023700C9
:100C28001600AE00004EA9001600AF00004EA80046
:100C3800530237001600AE00006EA9001600AF0080
:100C4800006EA8004E0237001600AE00008EA90004
:100C58001600AF00008EA800490237001600AE004B
:100C680000AEA9001600AF0000AEA800440237008D
:100C78001600AE0000CEA9001600AF0000CEA800F6
:100C88003F0237001600AE0000EEA9001600AF00C4
:100C980000EEA8003A0237001600AE0001CEA90007
:100CA8001600AF0001CEA800350237001600AE00CE
:100CB80001EEA9001600AF0001EEA80030023700CF
:100CC8001600AE0011EEA9001600AF0011EEA80044
:100CD8002B0237001600AE0011CEA9001600AF0097
:100CE80011CEA800260237001600AE0011AEA900EA
:100CF8001600AF0011AEA800210237001600AE00A2
:100D0800118EA9001600AF00118EA8001C02370032
:100D18001600AE00116EA9001600AF00116EA800F3
:100D2800170237001600AE00114EA9001600AF00DA
:100D3800114EA800120237001600AE00112EA900AD
:100D48001600AF00112EA8000D0237001600AE00E5
:100D5800110EA9001600AF00110EA80008023700F6
:100D68001600AE0010EEA9001600AF0010EEA800A5
:100D7800030237001600AE0010CEA9001600AF001F
:100D880010CEA800FE0137001600AE0010AEA90074
:100D98001600AF0010AEA800F90137001600AE002B
:100DA800108EA9001600AF00108EA800F4013700BD
:100DB8001600AE00106EA9001600AF00106EA80055
:100DC800EF0137001600AE00104EA9001600AF0064
:100DD800104EA800EA0137001600AE00102EA90038
:100DE8001600AF00102EA800E50137001600AE006F
:100DF800100EA9001600AF00100EA800E001370081
:100E08001600AE00202EA9001600AF00202EA80064
:100E1800DB0137001600AE00204EA9001600AF0017
:100E2800204EA800D60137001600AE00206EA9009B
:100E38001600AF00206EA800D10137001600AE00E2
:100E4800208EA9001600AF00208EA800CC01370024
:100E58001600AE0021CEA9001600AF0021CEA800D2
:100E6800C70137001600AE0021AEA9001600AF007A
:100E780021AEA800C20137001600AE00218EA900DD
:100E88001600AF00218EA800BD0137001600AE0085
:100E980031EEA9001600AF0031EEA800B801370006
:100EA8001600AE0031CEA9001600AF0031CEA80062
:100EB800B30137001600AE0031AEA9001600AF002E
:100EC80031AEA800AE0137001600AE00318EA90081
:100ED8001600AF00318EA800A90137001600AE0039
:100EE800316EA9001600AF00316EA800A4013700CA
:100EF8001600AE00314EA9001600AF00314EA80012
:100F08009F0137001600AE00312EA9001600AF0071
:100F1800312EA8009A0137001600AE00310EA90044
:100F28001600AF00310EA800950137001600AE007C
:100F380030EEA9001600AF0030EEA800900137008F
:100F48001600AE0030CEA9001600AF0030CEA800C3
:100F58008B0137001600AE0030AEA9001600AF00B6
:100F680030AEA800860137001600AE00308EA9000A
:100F78001600AF00308EA800810137001600AE00C1
:100F8800306EA9001600AF00306EA8007C01370053
:100F98001600AE00304EA9001600AF00304EA80073
:100FA800770137001600AE00302EA9001600AF00FA
:100FB800302EA800720137001600AE00300EA900CE
:100FC8001600AF00300EA8006D0137001600AE0005
:100FD800412EA9001600AF00412EA8006801370075
:100FE8001600AE00410EA9001600AF00410EA80081
:100FF800630137001600AE0040CEA9001600AF000E
:1010080040CEA8005E0137001600AE0040AEA90031
:101018001600AF0040AEA800590137001600AE0018
:10102800408EA9001600AF00408EA800540137007A
:101038001600AE00406EA9001600AF00406EA80072
:101048004F0137001600AE00404EA9001600AF0051
:10105800404EA8004A0137001600AE00402EA900F5
:101068001600AF00402EA800450137001600AE005C
:10107800400EA9001600AF00400EA800400137003E
:101088001600AE0051AEA9001600AF0051AEA80080
:101098003B0137001600AE00518EA9001600AF00C4
:1010A800518EA800360137001600AE00510EA90077
:1010B8001600AF00510EA800310137001600AE002F
:1010C80050AEA9001600AF0050AEA8002C013700A2
:1010D8001600AE00508EA9001600AF00508EA80072
:1010E800270137001600AE00506EA9001600AF00A9
:1010F800506EA800220137001600AE00504EA9001D
:101108001600AF00504EA8001D0137001600AE00B3
:10111800502EA9001600AF00502EA8001801370065
:101128001600AE00500EA9001600AF00500EA80021
:10113800130137001600AE00600EA9001600AF00BC
:10114800600EA8000E0137001600AE00602EA90040
:101158001600AF00602EA800090137001600AE0087
:1011680060CEA9001600AF0060CEA80004013700C9
:101178001600AE0060EEA9001600AF0060EEA800F1
:10118800FF0037001600AE00610EA9001600AF0080
:10119800610EA800FA0037001600AE00612EA90003
:1011A8001600AF00612EA800F50037001600AE004B
:1011B800618EA9001600AF00618EA800F00037000C
:1011C8001600AE0061AEA9001600AF0061AEA8001F
:1011D800EB0037001600AE0061CEA9001600AF0084
:1011E80061CEA800E60037001600AE0061EEA90047
:1011F8001600AF0061EEA800E10037000020EF0004
:1012080000079800DE0037007054E1007AFE3200D3
:101218007154E1007DFE32007254E10080FE32001C
:101228007354E10083FE32007454E10086FE3200FC
:101238007554E10089FE32007654E1008CFE3200DC
:101248007754E1008FFE32007E54E10092FE3200B6
:101258007F54E10095FE3200F0C2B3000054E10073
:1012680097FE3200E0C2B3000054E10099FE32005C
:10127800D0C2B3000054E1009BFE3200C0C2B300EC
:101288000054E1009DFE3200B0C2B3000054E100FA
:101298009FFE3200A0C2B3000054E100A1FE32005C
:1012A80090C2B3000054E100A3FE320080C2B30034
:1012B8000054E100A5FE320070C2B3000054E10002
:1012C800A7FE320060C2B3000054E100A9FE32005C
:1012D80050C2B3000054E100ABFE320040C2B3007C
:1012E8000054E100ADFE320030C2B3000054E1000A
:1012F800AFFE320020C2B3000054E100B1FE32005C
:1013080010C2B3000054E100B3FE320000C2B300C3
:101318000054E100B5FE320010C3B3000054E100F0
:10132800B7FE320020C3B3000054E100B9FE32001A
:1013380030C3B3000054E100BBFE320040C3B30029
:101348000054E100BDFE3200E0C3B3000054E100E8
:10135800BFFE3200D0C3B3000054E100C1FE32002A
:10136800C0C3B3000054E100C3FE3200F0C4B300B0
:101378000054E100C5FE3200E0C4B3000054E100AF
:10138800C7FE3200D0C4B3000054E100C9FE3200E9
:10139800C0C4B3000054E100CBFE3200B0C4B300B7
:1013A8000054E100CDFE3200A0C4B3000054E100B7
:1013B800CFFE320090C4B3000054E100D1FE3200E9
:1013C80080C4B3000054E100D3FE320070C4B300FF
:1013D8000054E100D5FE320060C4B3000054E100BF
:1013E800D7FE320050C4B3000054E100D9FE3200E9
:1013F80040C4B3000054E100DBFE320030C4B30047
:101408000054E100DDFE320020C4B3000054E100C6
:10141800DFFE320010C4B3000054E100E1FE3200E8
:1014280000C4B3000054E100E3FE320090C5B300ED
:101438000054E100E5FE320080C5B3000054E1002D
:10144800E7FE320060C5B3000054E100E9FE320057
:1014580050C5B3000054E100EBFE320040C5B300B4
:101468000054E100EDFE320030C5B3000054E10045
:10147800EFFE320020C5B3000054E100F1FE320057
:1014880010C5B3000054E100F3FE320000C5B300FC
:101498000054E100F5FE3200D0C6B3000054E1006C
:1014A800F7FE3200C0C6B3000054E100F9FE320076
:1014B80080C6B3000054E100FBFE320050C6B30002
:1014C8000054E100FDFE320040C6B3000054E100C4
:1014D800FFFE320030C6B3000054E10001FF3200C5
:1014E80020C6B3000054E10003FF320010C6B30069
:1014F8000054E10005FF320000C6B3000054E100CB
:1015080007FF320000C7B3000054E10009FF3200B2
:1015180010C7B3000054E1000BFF320060C7B300EE
:101528000054E1000DFF320070C7B3000054E10021
:101538000FFF320080C7B3000054E10011FF3200F2
:1015480090C7B3000054E10013FF3200C0C7B300D6
:101558000054E10015FF3200D0C7B3000054E10089
:1015680017FF3200E0C7B3000054E10019FF320052
:10157800F0C7B3000054E1001BFF32001FFF370023
:0C1588000E0090000080FA000000060039
:100400000000FA002174200062042000730520001F
:10041000824878008348780042C7A9000080FA002B
:0404200000000600D2
:100424000000FA00217420006204200073052000FB
:10043400824878008348780042C7A8000080FA0008
:0404440000000600AE
:1025E8000000FA00CEB897003EBA97002EB99700BF
:1025F8009EB99700A0F12000F0828800F0FF2F001C
:1026080000838800A022EF00A222EF000B007500D3
:102618000C0070000D0070000100700004007000D4
:1026280082007000202A200003887000A0C2A90040
:0C263800A1E2A8000080FA0000000600EB
:102510000200FA008A1F78000820EF000A20EF006E
:102520000020EF000020EF000020EF000220EF006D
:102530000020EF00104798000020EF0000479800AF
:102540000401BE000E4090006A04E1001C0031004E
:10255000224EA900610047001085FB0035FE0700F0
:1025600000027800610047001085FB0031FE070083
:1025700080007800224EA8007F0062004800DD0045
:1025800000027800010072004100DE0000027800C5
:10259000829FBE00040078008000EB0079FC0700F9
:1025A0004F01BE00D2FC07000002BE008E4090002A
:1025B0006000470061C840000401BE00E1FF370031
:1025C0000200BE0002002000031224007EFD07006E
:1025D0000001BE000200BE00EEFB07004F057800C0
:0825E0000080FA000000060073
:101E34000000FA00A0C2A900A022AE0001003700F1
:101E4400FDFF37004A158800A002AF0001003700EB
:101E5400FDFF3700A882BF000080FA0000000600E2
:001E64007E
:101784000000FA0002000700740C040000000000CE
:101794000400E20006003A000005EB000200E2004B
:1017A4000F003E000000E200270032000C0037006A
:1017B400A10088000200E2000400350008003C009B
:1017C4000000E20020003200050037006000100035
:1017D400E080180002003B0001F02C001A003700E2
:1017E4000084BE006011B8006B0920000982CF009C
:1017F400020039000882CF000441B000694252005F
:101804000E00320008003B00828171006101640017
:101814008904D1000884D3008B05E8000442E80061
:10182400F9FF3A00050037000804440089844C009D
:101834008B05E9000442E900FBFF3A0003000700BE
:101844000AF0A70003E0A8000000060081002000C1
:10185400618055000B003D000B00200061FE2F004D
:101864000100E1001D003400828171006101640007
:101874008904D1000884D3000000E800FAFF3A008C
:101884007100200061006400030070000200600029
:101894000900320061044400E0844C000988A5007A
:1018A400050032008B05E8006808E10002003A00F8
:1018B4008904D1000884D300F20F20000258E1000B
:1018C40005003D00C75DDD00F907B20089807500A1
:1018D40008008800000006000BF827001B008800A1
:0C18E400000005000080FA000000060073
:1018F0000000FA0002000700E00D040000000000F4
:10190000889FBE008A9FBE008C1F78005900070088
:10191000600033006450E1004F0032006420E100B9
:101920005200320003826C0007003B000905D00022
:101930000306D000820F54000C065D00020039003F
:101940000200320039008800C300880085825500FB
:1019500004003D000003FD008103FD008502EA0054
:101960008B854200840F720002003B006000100073
:10197000E08018006011B8000005EB007A28E10053
:101980000A00390006008800C75DDD00F707B200D5
:10199000878075002D003700828171002A00880041
:1019A000610560008180D1000080D3008502E900DC
:1019B000F9FF3B00060440008784480002003B001A
:1019C00060041400E0841C000988A30007003200B2
:1019D0008A81710082817100610164008904D100F3
:1019E0000884D3008B05E800170037000978A300AE
:1019F00013003A001600E200130034008B05E900E2
:101A00000804440089844C000A4474000978A30047
:101A10000D003A001600E200070034008B05E900D3
:101A20000804440089844C0001003A000B002000A7
:101A30000978A300F7FF32000001EB000200370035
:101A4000828171002A008800220007000CF0A700A4
:101A500003E0A800180037006420E10002003A000B
:101A6000838F6C00180033000881BE000280BE0026
:101A7000110037000084BE003C0007000083BE0058
:101A80000485BE000280BE0038000700844F750048
:101A9000000006000280BE006450E1000500360030
:101AA0006420E100020036000968A30001003A004A
:101AB0000880BE0002C0A8004F0678004F05BE0097
:101AC0004F04BE0000000600F0FF2F00F1FF2700CA
:101AD000F9FF370081002000618055000B003D00B8
:101AE0000B00200061FE2F000100E1001D0034000A
:101AF00082817100610164008904D1000884D300EF
:101B00000000E800FAFF3A00710020006100640064
:101B1000030070000200600009003200610444000C
:101B2000E0844C000988A500050032008B05E80020
:101B30006808E10002003A008904D1000884D3005B
:101B4000F20F20000258E10005003D00C75DDD00F6
:101B5000F907B200898075000800880000000600BF
:101B60000BF827001B00880000000500C70ADE00F4
:101B7000F107B200F50FB20008003200E1CF4200D9
:101B80000200320002E0A80024000500810F70006E
:101B9000010032000408050044000500810F7000B8
:101BA00002003A00140005008502E9000000400030
:101BB00081C04800FCFF3B0002E0A80024000500B3
:081BC0000080FA00000006009D
:101BC8000000FA0002000700160F040000000000E1
:101BD800889FBE008A9FBE008C1F78003E000700C9
:101BE8004500330003866C006450E1002E0032008B
:101BF8006420E100330032006150E1002F00320020
:101C08006120E1003100320085855500EB07B00006
:101C180009002000080420000500370008044400DB
:101C280089844C000A0031000603430087834B0077
:101C38000001530081815B00F8FF33000283BE007E
:101C48001000A8000804440089844C00F6FF3900FD
:101C5800C639DD0083017300010032001300200043
:101C68008904D1000884D3000998A3000500320034
:101C78000800A7000600A8008904D1000884D30042
:101C88008B05E8008904D1000884D3000001EB002B
:101C98000281D2002800070001F0A1000CF0A70083
:101CA80003E0A8001D0037006420E1001F00320097
:101CB8000881BE000280BE00F7FF37006120E10006
:101CC8001A0032006000B800F3FF3700000020005F
:101CD80001F82700F0FF37000084BE003C00070031
:101CE8000083BE000485BE000280BE0038000700E5
:101CF800844F7500000006000280BE006450E100B9
:101D0800050036006420E100020036000968A300DF
:101D180001003A000880BE0002C0A8004F06780003
:101D28004F05BE004F04BE0000000600F0FF2F0064
:101D3800F1FF2700F9FF370081002000618055007E
:101D48000B003D000B00200061FE2F000100E100A8
:101D58001D00340082817100610164008904D10092
:101D68000884D3000000E800FAFF3A007100200060
:101D78006100640003007000020060000900320086
:101D880061044400E0844C000988A5000500320085
:101D98008B05E8006808E10002003A008904D100D8
:101DA8000884D300F20F20000258E10005003D002E
:101DB800C75DDD00F907B20089807500080088005A
:101DC800000006000BF827001B0088000000050033
:101DD800C70ADE00F107B200F50FB20008003200B2
:101DE800E1CF42000200320002E0A8002400050012
:101DF800810F70000100320004080500440005004E
:101E0800810F700002003A00140005008502E90005
:101E18000000400081C04800FCFF3B0002E0A80031
:0C1E2800240005000080FA000000060005
:101594000000FA00020007003E0B040000000000F7
:1015A4000081BE001F0007000470A70003F0A10023
:1015B4006509B100160032000D0035006828E1000D
:1015C40006003500F0FF2F00F1FF27000600E200BF
:1015D40013003B000100280000000500000040004B
:1015E400818048008502E900FCFF3A0008003700CA
:1015F400F88F420002003C008000EB000000050070
:101604008100D1000080D3008502E800FCFF3A008D
:101614000600E20002003B0060001000E0801800B9
:1016240000000600C70ADE00F107B200F50FB200A1
:1016340008003200E1CF42000200320002E0A800BC
:1016440024000500810F7000010032000408050029
:1016540044000500810F700002003A0014000500E8
:101664008502E9000000400081C04800FCFF3B0007
:1016740002E0A800240005000080FA000000060033
:0016840066
:102658000600FA008A1F78008B1F7800000020000F
:102668004047980000002000504798000A0798004B
:102678001B0798000E0190009E019000F0FF2F00AC
:10268800F1FF2F000010E1000198E10005003A0079
:102698004B0521000C057800F3FE070030C0B3009D
:1026A800FE00370016C0B30060004700630040001A
:1026B8001040780000E0AE000D00370060004700D1
:1026C800630140009280FB00000820000080680041
:1026D80000497800E1404300D0C2B300004E7800C2
:1026E80061004600000678000142780001003700CA
:1026F800064278000E0090009E0090006000E10005
:102708006088E10005003A008B0521000C0578007F
:10271800D5FE07000020EF00E00037000E01900012
:102728009E0190000000200001F827000010E10041
:102738000198E10005003A00AB0521000C0578007E
:10274800C9FE070004407800D40037008C1F7800C9
:102758008A9FBE000200200003F823000E009000AC
:102768009E009000BBFE07000000E0000060EF0044
:1027780001003D000060EC004F05BE004F067800E8
:102788000040E2000F0032008C1F78008A9FBE00D4
:102798000E0090009E00900002002000031224000A
:1027A8001AFE07004F05BE004F0678000007980084
:1027B80011079800DE4090006500470061C850008E
:1027C800E2FF37008C1F78008A9FBE0002002000BD
:1027D800031224000E0090009E00900098FE07004F
:1027E8000000E0000060EF00010035000060EC0030
:1027F8004F05BE004F0678000040E2000F0032008F
:102808008C1F78008A9FBE000E0090009E009000EA
:10281800D2CC2C00C3DC2300FCFD07004F05BE0012
:102828004F0678000007980011079800DE409000D6
:102838006500470061C84000E2FF370060014700BB
:102848003200D000A280D20000079800110798003B
:10285800600047006300400090407800F0C7B30074
:1028680000C1500060004700E300400010C0B30002
:10287800804878008281FB00600147001200BE009A
:102888008301E900030035000000D0008180D200F8
:10289800FBFF370000079800110798006000470009
:1028A80063004000010320001080FB00008040000E
:1028B800004E780061004600000678005E409000F7
:1028C8006104E100040035005E4090006604E10008
:1028D80001003C0006003700E0C2B300004E78005B
:1028E800610046000006780010C0B3004047980019
:1028F80065C0B300602CE1002C0032006000470086
:10290800E30040000020EF008048780060004700A6
:10291800B001D0002082D2008301D0000482D2000E
:102928006001470032804100A2004A000007980079
:1029380011079800600147003200D000A280D20041
:1029480000079800110798006000470063004000E6
:10295800010320001080FB0000804000004E78003A
:1029680061004600000678004E4090006004E100D7
:102978000B003A005E4090000060ED005047980060
:102988006004E10006003A00E0C2B300004E78009F
:10299800610046000006780010C0B3004047980068
:1029A80061C0520080427800D2FF3700F0FF2F004C
:1029B800000046009040780000C3B300000CE1001E
:1029C80003003A006100560000067800F7FF370060
:1029D800F0FF2F000000460090407800E0C2B300EE
:1029E800000CE10002003A00610056000006780081
:1029F8005E4090006004E1002500320050C6B3003C
:102A0800004E780061004600000678005E409000A5
:102A18006004E10007003D00D0C2B300004E78001A
:102A28006100460000067800DE409000650047001F
:102A380060C81000DE4190005E4090006904E1002B
:102A48000A0036000380FB00A200200011000900E4
:102A58000200D80080007800000320000100400038
:102A6800004E780061004600000678000380FB00F5
:102A7800A2002000110009000200D8000003200075
:102A880001004000004E7800610046000006780012
:102A98000020EF00004E78000020EF00CF057800FE
:0C2AA8004F0578000080FA0000000600D6
:102270000000FA000A00780000017800E101400047
:102280008B00780061804500800578001149780056
:102290001204E0000200320003007800F6FF37006D
:0C22A0000A0078000080FA000000060030
:10225C000000FA00140020000EFD07000080FA00B8
:04226C000000060068
:1016A0000000FA0002000700BE0B0400000000006A
:1016B000841F7800140007004F00780011003300E9
:1016C000F0FF2F00838F6C0006003B0004056500CF
:1016D0000A00A7000800370009F0A600100020004B
:1016E00008003700820F5400838F5C00030039002C
:1016F0001000200001003E000000200009F0A700BB
:101700000000EA00000006000084BE00060007009A
:101710000083BE000485BE000280BE0002000700F8
:10172000844F750000000600C70ADE00F107B20012
:10173000F50FB20008003200E1CF42000200320093
:1017400002E0A80024000500810F700001003200B3
:101750000408050044000500810F700002003A00F3
:10176000140005008502E9000000400081C0480027
:10177000FCFF3B0002E0A800240005000080FA0006
:04178000000006005F
:102248000000FA00F4FF2F0013FD07000080FA00D9
:04225800000006007C
:102014000000FA0002000700201104000000000084
:10202400889FBE008A9FBE008C1F78003000070086
:102034003700330003866C006450E1002400320052
:102044006420E100270032006150E10022003200E8
:102054006120E100210032008B854200EB07B100D2
:102064000134B800003AB8000804420089844A00E8
:10207400013AB8000030B8008880400009014A00E5
:102084000400330000004000818048000201490040
:102094008B05E900C909DD008301700001003200ED
:1020A40013002000C814DE004814DD004709DE00D8
:1020B4001200B200C808DE00088470002400070083
:1020C40001F0A1000CF0A70003E0A80019003700FC
:1020D4006120E1001B0032000881BE000280BE00C6
:1020E400F7FF37006150E100FCFF3A0015003700AC
:1020F4000084BE003C0007000083BE000485BE00CF
:102104000280BE0038000700844F750000000600FE
:102114000280BE006450E100050036006420E10046
:10212400020036000968A30001003A000880BE00DE
:1021340002C0A8004F0678004F05BE004F04BE0041
:1021440000000600F0FF2F00F1FF2700F9FF370021
:1021540081002000618055000B003D000B00200031
:1021640061FE2F000100E1001D0034008281710036
:10217400610164008904D1000884D3000000E800F0
:10218400FAFF3A007100200061006400030070004F
:10219400020060000900320061044400E0844C0045
:1021A4000988A500050032008B05E8006808E100F5
:1021B40002003A008904D1000884D300F20F200001
:1021C4000258E10005003D00C75DDD00F907B200DB
:1021D4008980750008008800000006000BF82700BD
:1021E4001B00880000000500C70ADE00F107B200EA
:1021F400F50FB20008003200E1CF420002003200C5
:1022040002E0A80024000500810F700001003200E4
:102214000408050044000500810F700002003A0024
:10222400140005008502E9000000400081C0480058
:10223400FCFF3B0002E0A800240005000080FA0037
:042244000000060090
:102644000000FA0007E0AA00A8FC07000080FA00D6
:04265400000006007C
:102DB80001002100000028002E000900B01878004A
:042DC8000000060001
:020000040001F9
:100000005350000049200000496E00006974000050
:10001000696100006C6900007A650000640D0000F1
:040020000A000000D2
:100024005541000052540000204900006E69000050
:1000340074690000616C0000697A00006564000066
:100044000D0A000000550000415200005420000039
:10005400496E000069740000696100006C69000069
:0C0064007A650000640D00000A00000036
:10007000456E000074650000726900006E67000044
:1000800020570000686900006C650000204C0000EB
:100090006F6F0000702E00002E2E00000D0A000071
:0800A000006D00005600000095
:0800A8004E6100004E00000053
:0400B000300000001C
:0800B400494E00004600000067
:0200000401F009
:1C0008000300000082000000850000007F0000003F000000D7000000030000003A
:00000001FF
