:1000000007EF08F00000000000EF00F00000000023
:0A0010000000000000000000F3D71C
:10001C000B820BAE18EF00F00368026801680068F1
:08002C000A360232FF0E120039
:0E003400026A016A006A086A036A000E12007E
:100042000B840BAE2CEF00F0010E036E026A016A04
:0A005200006A0A360232FF0E1200A7
:08005C000AAE029E000E120024
:0E006400ACB202D00000FCD7A4C0ADFF120069
:100072000CB07BEF00F00CA221EF01F00E6A000E33
:10008200026492EF00F0F00E0214D8A45DEF00F0CB
:10009200023A01380F0B02260138F00B016E0038CC
:1000A2000F0B01260038F00B006E08380F0B0026EC
:1000B2000838F00B086E0E84D89002BE76EF00F07E
:1000C20008360036013602360E2A02BE76EF00F0FE
:1000D20008360036013602360E2A02BE76EF00F0EE
:1000E20008360036013602360E2A0E50036417EF28
:1000F20001F0035E0BBC08AE1CEF01F0D880800E4D
:1001020008640030000E002201220222D8A01CEF57
:1001120001F0023201320032034A21EF01F01CEFFA
:1001220001F001C002F000C001F008C000F0086A4E
:10013200000E0E860264C9EF00F0F00E0214D8A47D
:10014200B1EF00F0023A01380F0B02260138F00B32
:10015200016E00380F0B01260038F00B006E0E8482
:10016200D89002BE76EF00F00036013602360E2A33
:1001720002BE76EF00F00036013602360E2A02BECB
:1001820076EF00F00036013602360E2A76EF00F0E6
:1001920001C002F000C001F0006A000E0E960E8847
:1001A2000264F6EF00F0F00E0214D8A4E1EF00F0C2
:1001B200023A01380F0B02260138F00B016E0E8451
:1001C200D89002BE76EF00F0013602360E2A02BE49
:1001D20076EF00F0013602360E2A02BE76EF00F00C
:1001E200013602360E2A76EF00F001C002F0016AF3
:1001F200000E0E86026426EF01F0F00E0214D8A45F
:1002020005EF01F0023A0E84D89002BE76EF00F0BC
:1002120002360E2A02BE76EF00F002360E2A02BE27
:1002220076EF00F002360E2A76EF00F0010E0C6E29
:1002320007DF29EF01F0020E0C6E0FDF29EF01F04C
:10024200040E0C6EEADE29EF01F0080E0C6EF1DEF0
:02025200120098
:10025400086A096A100E0C6E013408360936045017
:10026400085E0550D8A0053C095ED8B007D00450FC
:1002740008260550D8B0053C0926D890003601362A
:060284000C2EEAD7120067
:10028A00A4C0C9FF016A0150000A05E1000EC7B007
:0C029A00010E016EF8D7C9CF00F0120071
:1002A600086A080E0C6E003408360450085ED8B092
:0E02B60002D00826D89000360C2EF5D7120084
:1002C400025006180E6E086A096A0B6A0350076426
:1002D40055EF02F006500A6E068E028E03500B6E26
:1002E4000750036E000E0B64A5EF01F00B50075E80
:1002F400D8B446EF02F0070E076414EF02F0075E6D
:1003040000C008F001C000F002C001F0026A074E0C
:1003140046EF02F00764E9EF01F0075E00C008F061
:1003240001C000F0016A074E46EF02F00764C7EF10
:1003340001F0075E00C008F0006A074E46EF02F0C5
:100344000764AEEF01F00AC002F005C001F004C07A
:1003540000F0086A6FEF03F0030E0764B9EF01F0D1
:10036400075E08380F0B086E074E46EF02F0D89070
:100374000832074E46EF02F0D8900832074E46EF97
:1003840002F0D890083246EF02F0030E0764D8EF6B
:1003940001F0075E08380F0B086E0038F00B0826D2
:1003A40000380F0B006E074E46EF02F0D890003273
:1003B4000832074E46EF02F0D89000320832074E5A
:1003C40046EF02F0D8900032083246EF02F0030EF6
:1003D400076400EF02F0075E08380F0B086E003860
:1003E400F00B082600380F0B006E0138F00B0026C6
:1003F40001380F0B016E074E46EF02F0D890013220
:1004040000320832074E46EF02F0D8900132003233
:100414000832074E46EF02F0D8900132003208321B
:1004240046EF02F0030E076431EF02F0075E08386E
:100434000F0B086E0038F00B082600380F0B006E07
:100444000138F00B002601380F0B016E0238F00B57
:10045400012602380F0B026E074E46EF02F0D890C9
:100464000232013200320832074E46EF02F0D890D1
:100474000232013200320832074E46EF02F0D890C1
:100484000232013200320832096A000E0EAE3AEF2F
:1004940003F0081E001E011E021E082A002201226B
:1004A40002223AEF03F00750D8A45BEF02F06FEF9B
:1004B40003F0096A02C00AF0028E068E0750035C3C
:1004C400076ED8B42DEF03F0070E0764FBEF02F0BC
:1004D400075E0450096E0550046E0650056E066AE8
:1004E400074E2DEF03F0070E0764D0EF02F0075E0E
:1004F4000450096E0550046E056A074E2DEF03F093
:10050400070E0764AEEF02F0075E0450096E046A3A
:10051400074E2DEF03F0070E076495EF02F00AC0B3
:1005240002F06FEF03F0030E0764A0EF02F0075E22
:1005340009380F0B096E074E2DEF03F0D8900932DE
:10054400074E2DEF03F0D8900932074E2DEF03F03C
:10055400D89009322DEF03F0030E0764BFEF02F0C9
:10056400075E09380F0B096E0438F00B09260438AE
:100574000F0B046E074E2DEF03F0D89004320932AE
:10058400074E2DEF03F0D89004320932074E2DEFB9
:1005940003F0D890043209322DEF03F0030E076400
:1005A400E7EF02F0075E09380F0B096E0438F00B11
:1005B400092604380F0B046E0538F00B04260538A1
:1005C4000F0B056E074E2DEF03F0D8900532043261
:1005D4000932074E2DEF03F0D89005320432093268
:1005E400074E2DEF03F0D8900532043209322DEF77
:1005F40003F0030E076418EF03F0075E09380F0BCE
:10060400096E0438F00B092604380F0B046E053804
:10061400F00B042605380F0B056E0638F00B052683
:1006240006380F0B066E074E2DEF03F0D8900632F6
:10063400053204320932074E2DEF03F0D89006320A
:10064400053204320932074E2DEF03F0D8900632FA
:10065400053204320932086A000E0EAE3AEF03F096
:10066400091E041E051E061E092A0422052206224E
:100674000950082604500022055001220650022287
:100684000EBE51EF03F0D8A060EF03F00232013246
:1006940000320832033E60EF03F06AEF03F0D8B093
:1006A40065EF03F0000E081E001E011E021E082A3C
:1006B4000022012202220A7E65EF03F0010E0C6E75
:1006C400D6DC71EF03F0020E0C6ED1DC71EF03F097
:1006D400040E0C6EA1DC71EF03F0000E0C6E120020
:1006E4009AC004F09BC005F004C002F005C003F0FA
:1006F400044A052A9CC000F09DC001F000019C4BF7
:100704009D2B00C0E9FF01C0EAFF02C0E1FF03C066
:10071400E2FFEECFE6FF02C0E9FF03C0EAFFEE52BC
:0E07240001E0E2D79AC000F09BC001F0120085
:100732000A6A0350D8A40A800750D8A40A820A5031
:10074200D8B4FCEF03F0030AD8B4B5EF03F00AB053
:10075200B0EF03F006AEFAEF03F0F8EF03F002AEEB
:10076200F8EF03F0FAEF03F00250800B0A6E029EDC
:100772000650800B069E0A18D8B4C6EF03F00A5042
:10078200D8B4F8EF03F0FAEF03F00750035CD8B4E3
:10079200D0EF03F0D8A0ECEF03F0F2EF03F0065035
:1007A200025CD8B4DAEF03F0D8A0ECEF03F0F2EF7A
:1007B20003F00550015CD8B4E4EF03F0D8A0ECEFED
:1007C20003F0F2EF03F00450005CD8B4FCEF03F046
:1007D200D8B0F2EF03F00A52D8B4FAEF03F0F8EF10
:1007E20003F00A52D8B4F8EF03F0FAEF03F0D8801E
:0E07F2001200D8901200D880D8841200120095
:100800008A0E0001856F020E866FA40E876F000EA0
:10081000886FFF0E756FFF0E766FFF0E776FFF0EFE
:10082000786F949A9A51040A02E1948601D09496C2
:100830009488C66A9A51C6129C51C6129B51C7121F
:100840009C5305E09D51000AD8B4C78C03D09D533A
:08085000D8A4C78CC68A12006F
:100858000C6A0E6A0250D8A445EF04F001C002F0F9
:1008680000C001F0006A0E860250D8A445EF04F0DB
:1008780001C002F0016A0E960E880250D8B457EFF4
:1008880004F00E50035ED8A4D8A05DEF04F0D89011
:1008980002BE63EF04F0003601360236032E4CEF39
:1008A80004F05DEF04F0010E0C6E1AEC00F067EF37
:1008B80004F0020E0C6E21EC00F067EF04F0040E59
:0808C8000C6E2EEC00F0120092
:1008D00000019D6B9AC0E9FF9BC0EAFFEECF9CF040
:1008E0009C51000A0FE09CC0A4F032EC00F0000123
:1008F0009D2B9D519A25E96E000E9B21EA6EEECF4D
:060900009CF0EED712008E
:10090600086A096A000E0762036408EF05F00250E0
:1009160006180A6E075003267E0ED8A099EF04F03B
:10092600035ED8B00DEF05F09DEF04F0035ED8A08E
:1009360012EF05F0028E068E02C00EF001C00BF01B
:1009460000C00DF000500402F4CF0CF00150050277
:10095600F4CF00F0F3CF08F00402F3500C26F45065
:100966000822000E00220D500502F3500C26F4500A
:100976000822000E002202500402F3500826F4500A
:10098600002202500502016A000E0122F3500026E1
:10099600F45001220D500602F3500826F4500022AE
:1009A600026A000E012202220B500602F3500026B4
:1009B600F4500122000E02220E500602F3500126C8
:1009C600F450022202BEF0EF04F00836003601367B
:1009D60002360306D8B412EF05F003EF05F0D8800F
:1009E600800E08640030000E002201220222D8A0E8
:1009F60003EF05F0023201320032034A0DEF05F033
:100A06000AAE029E000E15EF05F0010E1AEC00F07C
:100A160015EF05F0020E0EEC00F015EF05F0040ED2
:060A260021EC00F01200BB
:100A2C000001A26BA36B9A6B0A0E9A5D37E28D9054
:100A3C009BC0A4F024DC00C09CF0000E00019D6F54
:100A4C009BC0A4F01CDC00C09EF0000E00019F6F48
:100A5C008D801F0E9C15036E9DC004F0000E0416B5
:100A6C0003C001F0006A00C09CF001C09DF09E51D3
:100A7C009C11036E9D519F11046E03C000F004C0C5
:100A8C0001F001320032019E00C09CF001C09DF0CB
:100A9C009C51A2279D51A3239A2BC6D70A0E046EF4
:100AAC00000E056EA2C000F0A3C001F02AEC01F00C
:100ABC0000C0A0F001C0A1F0A0C000F0A1C001F0E6
:020ACC00120016
:100ACE00640E0001716F000E726FA40E736F000E34
:100ADE00746FFF0E796FFF0E7A6F000E7B6F000E34
:100AEE007C6FFF0E816FFF0E826F000E836F000E04
:100AFE00846FFF0E7D6FFF0E7E6F000E7F6F000EF8
:100B0E00806FAC8A900EAB6E948E949C9EAA03D08E
:080B1E00AECF00F0FBD712007E
:100B2600946A956A96908D80100EAF6EAC84CCDF79
:100B3600070E0B6E170E0C6E6A0E0D6E0D2EFED77F
:100B46000C2EFCD70B2EFAD70000400E9A6F000E23
:100B56009B6FBBDE6D6B6E6B6F6B706B6B6B6C6BD9
:100B6600636B646B656B666B616B626B8D80020E8B
:100B76009A6F9B6B9C6B010E9D6F3FDE070E0B6E93
:100B8600170E0C6E6A0E0D6E0D2EFED70C2EFCD7B0
:100B96000B2EFAD70000150E9A6F000E9B6F95DE8E
:100BA60042DF00C061F001C062F062336133629FD0
:020BB60012002B
:100BB8000900F5CFE6FF0006FBE10106F9E11200A6
:100BC8000050086E0150006E016A026A036A0B6ADF
:100BD8000C6A960E036E0A6A00C001F008C000F0A5
:080BE800086A026A35DE120002
:100BF0000001986B996B8DC094F08EC095F08FC0FA
:100C000096F090C097F09751FF0A08E19651FF0ABD
:100C100005E19551FF0A02E19451FF0A0CE191C0F0
:100C20009AF092C09BF0530E9C6F000E9D6F5ADDA0
:100C3000030E006EE7D1010E606F96AF0ED0800EEE
:100C40009619006E00C096F0602B91C0E1FF92C033
:100C5000E2FF2D0EE66E914B922B000E006E97195F
:100C600008E10050961905E10050951902E19451F0
:100C7000000A0BE191C09AF092C09BF05A0E9C6F53
:100C8000000E9D6F2FDD006ABDD19751FF0A08E16C
:100C90009651000A05E19551000A02E19451000ABB
:100CA0000CE191C09AF092C09BF05C0E9C6F000E1C
:100CB0009D6F18DD60C000F0A5D1000E046E000E1F
:100CC000056E000E066E7F0E076E94C000F095C094
:100CD00001F096C002F097C003F02BDD010ED8B0F2
:100CE000000E006E00521BE094C000F095C001F0B1
:100CF00096C002F097C003F0000E046E000E056E61
:100D0000200E066E820E076EFEDD00C094F001C05C
:100D100095F002C096F003C097F09907CED7000E69
:100D2000046E000E056E200E066E820E076E94C0D5
:100D300000F095C001F096C002F097C003F0F9DC16
:100D4000000ED8B0010E006E00521BE094C000F0FF
:100D500095C001F096C002F097C003F0CD0E046E6E
:100D6000CC0E056E4C0E066E7B0E076ECCDD00C001
:100D700094F001C095F002C096F003C097F0992B53
:100D8000CED7FF0E9415086EFF0E9515096E7F0ED7
:100D900096150A6E000E97150B6E08C004F009C078
:100DA00005F00AC006F00BC007F0043604900536C3
:100DB00006360736000E9415006E000E9515016E6E
:100DC000000E9615026EFF0E9715036E00C094F08C
:100DD00001C095F002C096F003C097F00450941142
:100DE000006E05509511016E06509611026E075067
:100DF0009711036E00C094F001C095F002C096F008
:100E000003C097F07F0E975D006E00C093F0010E57
:100E1000976F00C004F094C000F095C001F096C038
:100E200002F097C003F0045007E00036009001364E
:100E300002360336FF0FF8D700C094F001C095F0DA
:100E400002C096F003C097F091C0E1FF92C0E2FFAC
:100E50009751300FE66E914B922B800E9919006ED0
:100E6000800E010A005C08E3800E060A006E800E08
:100E70009919005C01E30AD091C0E1FF92C0E2FF42
:100E80002E0EE66E914B922B010E986F060E936F0D
:100E90009351000A54E0976B94C000F095C001F0A4
:100EA00096C002F097C003F000360090013602367B
:100EB0000336003600900136023603369451002680
:100EC00095510122965102229751032200C094F0BD
:100ED00001C095F002C096F003C097F094C000F0F6
:100EE00095C001F096C002F097C003F00036009064
:100EF00001360236033600C094F001C095F002C0FE
:100F000096F003C097F091C0E1FF92C0E2FF9751C5
:100F1000300FE66E914B922B9851000A0EE1990723
:100F20009951000A0AE191C0E1FF92C0E2FF2E0E42
:100F3000E66E914B922B010E986F9307A9D7FF0E87
:100F40009125E96EFF0E9221EA6EEE50300A05E11E
:100F5000010E915F000E925BF2D7FF0E9125E96EB4
:100F6000FF0E9221EA6EEE502E0A04E1010E915F0F
:100F7000000E925B9951000A3FE091C0E1FF92C0E0
:100F8000E2FF650EE66E914B922B800E9919006E72
:100F9000800E000A005C0BE291C0E1FF92C0E2FF0C
:100FA0002D0EE66E914B922B99510008996F99C0C6
:100FB00093F0995109080FE20A0E046E93C000F0F5
:100FC00053EC01F091C0E1FF92C0E2FF0050300FFE
:100FD000E66E914B922B0A0E046E93C000F053EC18
:100FE00001F008C000F091C0E1FF92C0E2FF0050A4
:100FF000300FE66E914B922B91C0E1FF92C0E2FF61
:06100000E66A006A12001E
:08100600067E62EC01F012000D
:10100E00B4EC08F089DD270E9A6F000E9B6F59DC49
:10101E0000016D6B6E6B6F6B706B01DD00C002F0CB
:10102E0001C003F003320232039E02C000F003C07F
:10103E0001F0C3DD00C089F001C08AF002C08BF060
:10104E0003C08CF089C063F08AC064F08BC065F079
:10105E008CC066F061C000F062C001F0AEDD00C071
:10106E0004F001C005F002C006F003C007F089C00D
:10107E0000F08AC001F08BC002F08CC003F0BCDF20
:10108E00AC0E046E5C0E056E050E066E840E076EBB
:10109E0033DC00C06DF001C06EF002C06FF003C013
:1010AE0070F000C08DF001C08EF002C08FF003C052
:1010BE0090F0670E916F000E926F93DD670E9A6F30
:1010CE00000E9B6F68EC04F0200EA46F32EC00F063
:1010DE00570E00019A6F000E9B6F68EC04F00D0E18
:1010EE00A46F32EC00F00A0E0001A46F32EC00F097
:1010FE00150E0B6E4B0E0C6EBE0E0D6E0D2EFED71C
:0E110E000C2EFCD70B2EFAD7000082D7FFD78D
:1011680010EE15F04B0E006E010E016E1C0EF66EA1
:0E117800110EF76E000EF86EDCEC05F01200A2
:10111C0053504920496E697469616C697A65640D34
:02112C000A00B7
:10112E00456E746572696E67205768696C65204CF0
:09113E006F6F702E2E2E0D0A00B9
:101147005541525420496E697469616C697A6564C6
:031157000D0A007E
:04115A004E614E0094
:03115E006D5600CB
:0211610030005C
:04116300494E4600AB
:020000040030CA
:0E00000015037F7CF98B91FFFFC0FFE0FF40EE
:00000001FF
